:1000000009C03AC020C020C01EC01DC01CC01BC0FB
:100010001AC019C011241FBECFE9CDBF10E0A0E661
:10002000B0E0E0E8F3E002C005900D92A436B1071D
:10003000D9F710E0A4E6B0E001C01D92A837B107DF
:10004000E1F7D9D09BC1DCCF1F920F920FB60F9270
:1000500011248F9380916600815080936600809177
:100060006600882319F41092640013BE8F910F90DC
:100070000FBE0F901F9018951F920F920FB60F9200
:1000800011248F939F9390916400923079F1933073
:1000900030F4992369F0913009F093C013C0943083
:1000A00009F457C09430E0F1953009F08AC06EC071
:1000B00012BE84E083BF81E08093640082E080937D
:1000C000660081C082B712BE89538F3008F079C0B4
:1000D00010926700109268001092690010926A00F6
:1000E0009093650082E0809364006DC092B712BE69
:1000F000892F84508C3008F064C0993038F080919A
:10010000670090916500892B80936700809165005E
:10011000880F80936500882309F055C083E030C0C4
:1001200092B712BE892F84508C3008F04AC09930A3
:1001300038F08091680090916500892B8093680069
:1001400080916500880F809365008823E1F584E045
:1001500017C092B712BE892F84508C3090F5993019
:1001600038F08091690090916500892B8093690037
:1001700080916500880F80936500882321F585E0D4
:100180008093640081E0809365001DC092B712BE29
:10019000892F84508C30A8F4993038F080916A000F
:1001A00090916500892B80936A0080916500880F8B
:1001B00080936500882339F4809177008F5F809366
:1001C0007700109264009F918F910F900FBE0F9057
:1001D0001F901895CF93DF93C0E1D0E0CE01B4D04B
:1001E000FE01E55AFF4F80832196CC31D105B1F74E
:1001F000DF91CF910895F89417BA8FE388BBC49824
:10020000BC9A13BE8AEE86BF89BD1FBC82E085BF43
:1002100089BF80E48BBF7894DDDFEE2488248A9444
:1002200044E0942EAA24A39430E4F32E20EAB22EC4
:1002300091E0C92E9FE5D92E26B320952D7009F4A3
:1002400049C01BBE8092660093BEE0E6F0E090E0FD
:100250008081281711F4E92E04C09F5F31969430F5
:10026000B9F786B390E0809590958D709070892B4A
:1002700021F0809166008B39A0F7809166008C395F
:1002800030F5B0926600FBBEC49A80916600882368
:10029000E1F7809177008823C9F0109277000E2D46
:1002A00010E00C5F1F4F000F111F000F111FC0E067
:1002B000D0E0FE01E959FF4FCE01800F911F608110
:1002C0004BD088DF2196C430D10599F7C498A0920D
:1002D0006600FBBE80917700882309F4ADCF1BBE7A
:1002E000109277009091690080916D00981719F431
:1002F000E0E0F0E011C090916900809171009817E2
:1003000019F4E1E0F0E008C0909169008091750077
:100310009817C1F4E2E0F0E0C49A88B3E05AFF4FC6
:100320009081292F2095822388BB87B3892B87BB97
:10033000F6013197F1F788B3982B98BB87B3282340
:1003400027BBC498FBBE78CFE199FECF1FBA8EBB06
:10035000E09A99278DB30895262FE199FECF1FBA11
:100360008EBBE09A81500DB2021639F01CBA2DBB3B
:100370000FB6F894E29AE19A0FBE0895F894FFCF71
:04038000010408006C
:00000001FF
